:020000040800F2
:10000000C8040020390F0008410D0008430D000806
:10001000470D00084B0D00084F0D000800000000C0
:10002000000000000000000000000000530D000868
:10003000550D000800000000570D0008590D00087C
:10004000530F0008530F0008530F0008530F000808
:10005000530F0008530F0008530F00082B0C000823
:10006000530F0008530F0008530F0008530F0008E8
:10007000530F0008530F0008530F0008530F0008D8
:10008000530F0008530F0008530F0008530F0008C8
:10009000530F0008530F0008530F0008530F0008B8
:1000A000530F0008530F0008530F0008530F0008A8
:1000B000530F0008530F0008530F0008530F000898
:1000C000530F0008530F0008530F0008530F000888
:1000D000530F000823050008530F0008530F0008B2
:1000E000530F0008530F0008530F0008530F000868
:1000F000530F0008530F0008530F0008530F000858
:10010000530F0008530F0008530F0008530F000847
:10011000530F0008530F0008530F0008530F000837
:10012000530F0008530F0008530F0008530F000827
:10013000DFF80CD002F0C6FE00480047F7010008C7
:10014000C804002000B585B00121084601F025FB58
:100150000121042001F014FB0220ADF8000028204A
:100160008DF803006946FE4801F054F80221FC486E
:1001700001F0FDF84FF0804001F06AFB40F2E730FB
:10018000F8498880472008800020C88048804FF0C8
:10019000804001F031FC01221146900701F0A3FFDD
:1001A0000020ADF80800ADF80A000120ADF80C0001
:1001B0000020ADF80E00ADF8100002A94FF080400D
:1001C00001F0ADFE01220221480701F08CFF1C2046
:1001D0008DF8040000208DF8050001208DF8060040
:1001E0008DF8070001A800F0BEFE0121880701F08C
:1001F0005FFF05B000BD00F01FFE4FF4A06000F0EF
:10020000ADFEFFF79FFF0120D7490870002008705E
:1002100000BFFEE710B50121084601F0BEFA4FF01D
:10022000804001F015FB41F61F40CE4908800020B8
:10023000488040F2E73088800020C8804FF080403E
:1002400001F0DAFB01221146900701F04CFF1C205F
:10025000C649087001204870032088700120C870CA
:10026000084600F080FE0121102001F089FA4FF4C9
:100270000070BF490880032088701020C870BD48F6
:1002800000F0C8FF4FF40071BA4801F06EF8012188
:10029000880701F00DFF10BD10B50121022001F00B
:1002A0007CFAB54801F0D4FA4720AE490880002016
:1002B00048804FF47A7088800020C880AE4801F0F2
:1002C0009BFB10BD10B50121022001F066FA01214F
:1002D000042001F055FA8020A54908800320887089
:1002E0001820C8709E4800F095FF80219C4801F0BE
:1002F0003EF803209B490880002048804FF47A7024
:1003000088800020C8809C4801F076FB60209B49D3
:1003100008800120488000200881974801F0EBFB0D
:100320000121954801F0C4FE10BD10B504462146D8
:10033000914802F057F910BD10B50121042001F0D9
:100340002CFA8F4801F084FA472086490880002063
:10035000488042F2107088800020C880884801F0F0
:100360004BFB10BD10B50121082001F009FA012056
:100370007F490880032088701020C870814800F0F1
:1003800049FF01217F4800F0F2FF022078490880F0
:100390000420C8707B4800F03DFFFFF7CDFF10BD83
:1003A000002106E0082100BF0A00A1F10103D9B233
:1003B000FAD10200A0F10103D8B2F3D170472DE9C0
:1003C000F04101216F4800F0D0FF1420FFF7E8FF53
:1003D00001216C4800F0CBFF0020694924310880DE
:1003E00000BF0221674800F0A6FF0028F9D00121D4
:1003F000634801F05DFE00BF0221624800F09BFFF0
:100400000128F9D000215E4801F052FE5C492431F8
:10041000088802F06FFC06465B4A5C4B02F0F8FB72
:10042000044602F088FC5A490860084600685949A9
:10043000086057480068BDE8F08110B5012144F21A
:10044000040001F09DF9544802F010F94FF40070D7
:1004500047490880032088701820C870404800F081
:10046000D9FE4FF480604249088003208870042040
:10047000C8703B4800F0CEFE4FF4965047490860E4
:1004800000208880C88008810C2048810020888155
:10049000414802F02EF925203449087001204870A7
:1004A000022088700120C870084600F05CFD01221F
:1004B00040F22551384802F0B4F90121364802F0E3
:1004C000A4F98021344802F088FA10BD10B5044622
:1004D0002146314802F006FA00BF80212E4802F082
:1004E0006FFA0028F9D010BD10B504460BE014F8DF
:1004F000011B294802F0F6F900BF8021264802F0CE
:100500005FFA0028F9D020780028F0D110BD002033
:10051000234908702349087023490870234908704B
:10052000704710B540F225511B4802F05FFA0028D1
:1005300073D0194802F0DAF91D49087000201D49EE
:1005400008801B480078642858DB19480078643814
:1005500019490870FFF7DBFF1748007870BB2EE0E1
:10056000000801409C0000200400002068000020DA
:10057000640000200010014000040040A60000209C
:1005800000080040000C01409CC420B07268913FFC
:10059000140000203400002000380140B800002082
:1005A00006000020070000200800002009000020AD
:1005B0000C0000201E0000200A00002002E00020A5
:1005C000F9490860F9480078012802D1F848F6494D
:1005D0000860F6480078022802D1F648F24908601F
:1005E000F2480078032802D1F348EF490860EF4849
:1005F0000078042802D1EF48EB490860EF48007802
:100600000B282DDCED480078072807D1EC4800784E
:10061000401C40B2EA49087022E024E0E748007834
:10062000082806D1E6480078401E40B2E449087028
:1006300016E0E2480078092803D1FB20E049087061
:100640000EE0DE4800780A2803D10520DC49087056
:1006500006E0DA4800780B2802D10F20D84908704C
:100660000020D849088010BD10B50121102001F0EC
:1006700087F80121042001F083F84FF48050D2491B
:100680000880032088704820C870D04800F0C2FD60
:100690004FF40060CC490880CC4800F0BBFD4FF41B
:1006A0008060C9490880C94800F0B4FD0120C649EE
:1006B00008802820C870C64800F0ACFD10BD10B5F9
:1006C0000421C44800F053FE10BD002107E042F6AB
:1006D000E06100BF0A00A1F1010399B2FAD1020062
:1006E000A0F10103D8B2F2D1704710B54FF4805198
:1006F000B64800F020FEA8B90A20FFF7E6FF4FF445
:100700008051B24800F017FE002869D100BF4FF4B5
:100710008051AE4800F00FFE0028F8D0FFF7F7FE3A
:10072000012010BD4FF40061A84800F004FEC0B9DC
:100730000A20FFF7CAFF4FF40061A44800F0FBFD58
:1007400000284DD100BF4FF40061A04800F0F3FD38
:100750000028F8D0FFF7DBFE964893490860022096
:10076000DFE74FF48061994800F0E5FDB8B90A2051
:10077000FFF7ABFF4FF48061944800F0DCFD70BBE5
:1007800000BF4FF48061914800F0D5FD0028F8D0FB
:10079000FFF7BDFE9048844908600320C1E70121AE
:1007A0008B4800F0C8FDB8B10A20FFF78EFF012189
:1007B000874800F0C0FD90B100BF0121844800F0DF
:1007C000BAFD0028F9D1FFF7A2FE7A487649086001
:1007D000FFF775FF0420A4E780480078A1E7FFE752
:1007E00000BF9EE72DE9F0417D4801686E48006832
:1007F00002F092F97B4908607B48016879480068FB
:1008000002F08AF9044679480168204602F08AF924
:100810007749086000217748006802F0A9FA03D1FF
:1008200000207549086013E0744801686F4800684B
:1008300002F078F905466B480168284602F072F923
:1008400004466C480168204602F0A2F96A49086033
:10085000654801684FF0804002F064F980466148C5
:100860000168404602F05BF906466548016830467B
:1008700002F000F90546634801685C48006802F030
:1008800051F90746294602F04DF904465B480168D4
:10089000204602F07DF95C490860534800685849D9
:1008A000086050480068504908605148016857483E
:1008B000006802F0DFF805464F480168284602F05C
:1008C000D9F8044650480168204602F0D3F84F4951
:1008D00008604F494D48006802F054FA02D84C486D
:1008E0004A4908604B494948006802F041FA02D879
:1008F000484846490860BDE8F08110B54648007890
:1009000068B946494648006802F03CFA03D800201E
:100910004449088007E001203F49087003E04FF494
:10092000C8704049088010BD10B53F48007868B9CC
:100930003A493B48006802F025FA03D800203949BB
:1009400008800BE001203849087007E0FFF74AFFF4
:100950002E48006802F0DBF93249088010BD10B55E
:100960003248007868B92D492D48006802F00AFA2B
:1009700003D800202B490880B6E001202B490870DD
:10098000B2E02B492648006802F0FCF954D8084927
:100990002348006802F0ECF94ED826480088401C35
:1009A000244908804BE00000300000200A000020AD
:1009B000000020420000C841000010420C0000204E
:1009C0000B0000201E0000206400002000100140E9
:1009D000000801400014014000000C420500002006
:1009E00034000020380000203C00002024000020BB
:1009F00044000020280000204800002020000020A3
:100A0000400000202C0000204C000020500000205E
:100A10000000C84300001643060000200000C0404C
:100A2000140000201C000020070000200800002007
:100A30000000F041540000200020A5490880A5498D
:100A4000A548006802F09EF90BD8A449A2480068A6
:100A500002F08EF905D8A2480088401CA049088001
:100A600002E000209E490880994800881E2811DD78
:100A70009C48007801280DD19B489C4908600120C2
:100A80009B4908700020974908709A480078401CDC
:100A900098490870924800881E2812DD9448007812
:100AA00001280ED14FF084409049086001208D4903
:100AB000087000208E4908708F480078401C8E49CD
:100AC00008708C48007802280ED18B4800780228E4
:100AD0000AD10020834908708549087087488349F6
:100AE000086001208649087010BD10B5854800785F
:100AF00018B900208449088014E08448008814282C
:100B000005DA82480088401C804908800AE00120FC
:100B10007F490870FFF766FE7E48006802F0F7F82C
:100B20007949088010BD10B50121102000F028FE81
:100B3000802079490880032088702820C870774871
:100B400000F068FB10BD10B58021744800F0F3FB85
:100B5000734908700846007810BD10B501210420C3
:100B600000F00EFE0121202000F00AFE4FF48070FC
:100B700069490880032088701020C870694800F017
:100B800049FB4FF48071674800F0EFFB0420624995
:100B90000880654800F03EFB0421634800F0E5FB57
:100BA00010BD10B54FF480715E4800F0E0FB10BD41
:100BB00010B54FF480715B4800F0D7FB10BD10B545
:100BC0000421594800F0D1FB10BD10B501210846A1
:100BD00000F0D6FD0121042000F0D2FD02204E4994
:100BE00008802820C870032088704E4800F012FB4F
:100BF0000121002000F022FC02204C490860002066
:100C000008710820487101208871084600F022FA16
:100C10000720474908700020487003208870012091
:100C2000C870084600F09FF910BD10B5022000F012
:100C300077FA38B1022000F084FAFFF7B2FF012002
:100C40003049087010BD10B501203A4908700121E3
:100C5000800701F0F6FC48B137480078402805D1FC
:100C60003648008800F57A70344908800221480728
:100C700001F0E7FC30B33048007810F0400F10D09E
:100C800080202D490870C00501F0BCFC2B49098863
:100C900008442A49088000214FF0804001F0BAFB47
:100CA00010E00020244908702449088000214FF0FA
:100CB000804001F091FC40201F490870022100068D
:100CC00001F0A8FB03214FF0804001F0CBFC10BDE8
:100CD0005400002000002041140000200000A0412A
:100CE0005600002059000020000040413000002044
:100CF000580000205A0000205B0000200000204225
:100D00005C0000205D0000201C0000205E00002030
:100D1000600000205000002064000020001001400E
:100D20001100002000080140001401406C00002068
:100D300068000020040000200000002002000020C5
:100D4000704700BFFEE700BFFEE700BFFEE700BF41
:100D5000FEE7704770477047704700000CB50020F1
:100D6000019000906B48006840F480306949086049
:100D700000BF6848006800F4003000900198401CF3
:100D80000190009818B90198B0F5A06FF1D16148B1
:100D9000006810F4003F02D00120009001E0002024
:100DA00000900098012842D15B48006840F0100094
:100DB000594908600846006820F0030008600846AA
:100DC000006840F00200086052484068514948609D
:100DD0000846406848600846406840F480604860C3
:100DE0000846406820F47C1048600846406840F49B
:100DF000E81048600846006840F08070086000BF56
:100E00004448006810F0007FFAD04248406820F063
:100E10000300404948600846406840F002004860CE
:100E200000BF3C48406800F00C000828F9D10CBD18
:100E300010B5FFF793FF10BD10B53648006840F0BD
:100E40000100344908600846406834490840314987
:100E5000486008460068324908402E490860084644
:100E6000006820F4802008600846406820F4FE00F6
:100E700048604FF41F008860FFF7DAFF4FF0006012
:100E80002849086010BD10B5002100200022214B28
:100E90005B6803F00C0121B1042906D0082928D190
:100EA00007E0214B214C236027E01F4B1F4C2360A0
:100EB00023E0184B5B6803F47010164B5B6803F477
:100EC0008032022303EB904022B9194B4343174C65
:100ED00023600DE00F4B5B6813F4003F04D0144B0C
:100EE0004343124C236003E00F4B43430F4C2360FA
:100EF00003E00D4B0D4C236000BF00BF054B5B684A
:100F0000C3F303130B4CE15C084B1B68CB40074C4D
:100F1000236010BD00100240002002400000FFF8D6
:100F2000FFFFF6FE08ED00E000127A0074000020DA
:100F300000093D0078000020064880470648004729
:100F4000FEE7FEE7FEE7FEE7FEE7FEE7FEE7FEE779
:100F5000FEE7FEE7390E0008310100083149014380
:100F6000314A1160704770B5002100230F22C47808
:100F70000CB32D4C246804F4E064C4F5E064210A49
:100F8000C1F10403CA40447804FA03F184781440A0
:100F900021430901254C0678A155047804F01F056A
:100FA0000124AC4005786D114FF0E02606EB850575
:100FB000C5F8004109E0047804F01F050124AC40A5
:100FC0001B4D0678761145F8264070BD194A0A4037
:100FD0000243154B1B1F1A60704739B1124A121D8C
:100FE00012680243104B1B1D1A6006E00E4A121DC8
:100FF000126882430C4B1B1D1A607047042808D1ED
:101000004FF0E021096941F004014FF0E022116145
:1010100007E04FF0E021096921F004014FF0E022E0
:10102000116170470000FA050CED00E000E400E0FB
:1010300080E100E080FFFF1F002044490860091D97
:101040000860091D0860091D086041483F491431C6
:101050000860704700213D498279002A3AD00A464B
:10106000126803689A430B461A600A1D12680368E7
:101070009A430B1D1A60027911440A6803681A43E7
:101080000A60324A0832126803689A432F4B0833C9
:101090001A601A1D126803689A432C4B0C331A60AD
:1010A0004279102A0ED11A1F126803681A43274B7F
:1010B00008331A601A1D126803681A43234B0C3355
:1010C0001A600DE02149427911440A6803681A4305
:1010D0000A6005E0027911440A6803689A430A60CD
:1010E00070470021016001710C2141710021817163
:1010F00070471649103109680143144A10321160D3
:10110000704701460020114A143212680A4201D089
:10111000012000E0002070470C491431086070473E
:10112000014600200022094B1B6803EA0102074B1D
:1011300014331B680B4202D00AB1012000E00020EA
:1011400070470249143108607047000000040140F4
:10115000FFFF0F0010B50446CA48844208D10121A0
:10116000042000F027FB0021042000F023FB46E0D0
:10117000C548844208D10121082000F01BFB002152
:10118000082000F017FB3AE0C048844208D1012152
:10119000102000F00FFB0021102000F00BFB2EE0D0
:1011A000BB48844208D10121202000F003FB00212C
:1011B000202000F0FFFA22E0B648844208D1012145
:1011C000402000F0F7FA0021402000F0F3FA16E08A
:1011D000B148844208D10121802000F0EBFA0021BF
:1011E000802000F0E7FA0AE0AC48844207D10121F0
:1011F000801500F0DFFA0021A01500F0DBFA10BD29
:1012000010B50121084600F0D5FA0021012000F0B8
:10121000D1FA10BD2DE9F04102460025002600203C
:1012200000230024002791F803C00CF00F0591F86B
:1012300003C01CF0100F03D091F802C04CEA050562
:1012400091F800C0BCF1000F31D0146800202BE0F1
:101250004FF0010C0CFA00F3B1F800C00CEA0306E1
:101260009E4220D183004FF00F0C0CFA03F7BC43D1
:1012700005FA03FC4CEA040491F803C0BCF1280F02
:1012800006D14FF0010C0CFA00FCC2F814C00AE0C1
:1012900091F803C0BCF1480F05D14FF0010C0CFAD6
:1012A00000FCC2F810C0401C0828D1D31460B1F86B
:1012B00000C0BCF1FF0F34DD546800202EE000F1C7
:1012C000080C4FF0010808FA0CF3B1F800C00CEA62
:1012D00003069E4221D183004FF00F0C0CFA03F756
:1012E000BC4305FA03FC4CEA040491F803C0BCF1CA
:1012F000280F05D100F1080C08FA0CF8C2F8148088
:1013000091F803C0BCF1480F07D100F1080C4FF071
:10131000010808FA0CF8C2F81080401C0828CED347
:101320005460BDE8F0814FF6FF71018002218170A9
:101330000421C17070470246002093680B4201D01F
:10134000012000E0002070470146886880B27047A5
:1013500002460020D3680B4201D0012000E00020AB
:1013600070470146C86880B27047016170474161AB
:1013700070470AB1016100E041617047C160704788
:101380004FF480320A43826181618261826982699D
:10139000704702460020424B18684FF68073184091
:1013A00040EA021008433E4B186070473D49C8614F
:1013B0007047F0B50A46002300240021002500F004
:1013C0000046B6F1004F02D1354EF16901E0344ECE
:1013D0007168C0F3034583B200F44016B6F5401FB0
:1013E00008D121F070612E4E766826F070662C4F81
:1013F0007E6012E000F48016B6F5801F06D1032649
:1014000006FA05F4A14341F0706106E0460D36018D
:1014100003FA06F6B14341F0706122B1460D360180
:1014200003FA06F6314300F00046B6F1004F02D150
:101430001B4EF16101E01A4E7160F0BD30B5002223
:101440008B071C0F0F2303FA04F2154B08338C1083
:1014500053F824309343124C08348D1044F825304F
:1014600023468C1053F824308C07240F00FA04F420
:1014700023430B4C08348D1044F8253030BD0A4905
:101480000860704700080140000C01400010014056
:101490000014014000180140001C014000200140E0
:1014A0000000014000002042DC002042DD480068CE
:1014B00040F00100DB49086008464068DA4908400E
:1014C000D849486008460068D8490840D5490860AE
:1014D0000846006820F4802008600846406820F430
:1014E000FE0048604FF41F0088607047CD490968CE
:1014F00021F48031CB4A11601146096821F4802122
:101500001160B0F5803F03D0B0F5802F0ED106E01A
:10151000C449096841F48031C24A116007E0C149F9
:10152000096841F4A021BF4A116000E000BF00BF7C
:10153000704710B501460022002300204A11012AFD
:1015400002D1B84C236806E0022A02D1B54C236AC6
:1015500001E0B44C636A01F01F02012494401C4274
:1015600001D0012000E0002010BD38B5002000901F
:101570000024002500BF3120FFF7DBFF054600985F
:10158000401C00900098B0F5A06F01D0002DF2D063
:101590003120FFF7CEFF08B1012400E000242046EF
:1015A00038BD014600209F4A106820F0F80040EA4C
:1015B000C100106070479E490860704702460020D5
:1015C000984B586820F47C1042EA01031843954B6D
:1015D0005860704796490866704701460020914A56
:1015E000506820F003000843506070478D48406801
:1015F00000F00C007047014600208A4A506820F035
:10160000F00008435060704701460020854A50684A
:1016100020F4E06008435060704701460020814A92
:10162000506820F4605040EAC1005060704729B112
:101630007C4A527A02437B4B5A7204E0794A527ACE
:101640008243784B5A7270477A4908607047014666
:101650000020744A506820F44040084350607047AE
:101660000021754A11706F4A82F82010012802D0BB
:10167000042808D103E001216F4A117004E005211C
:101680006D4A117000E000BF00BF70476B490860F1
:1016900070476449096A0143624A116270476749A9
:1016A00044390860704730B500210022002400232F
:1016B0005C4D6D6805F00C0121B1042905D00829A5
:1016C00023D105E05E4D056022E05D4D05601FE021
:1016D000544D6D6805F47012524D6D6805F48034F8
:1016E000022505EB92421CB9564D554305600BE0AF
:1016F0004C4D6D6815F4003F03D0524D55430560C5
:1017000002E04F4D5543056002E04D4D056000BFBE
:1017100000BF444D6D6805F0F00109094A4D6B5C4E
:101720000568DD4045603F4D6D6805F4E061090ADC
:10173000454D6B5C4568DD4085603A4D6D6805F44C
:101740006051C90A404D6B5C4568DD40C560354D50
:101750006D6805F44041890B3C4D6B5CC568B5FB79
:10176000F3F5056130BD29B12E4A526902432D4B74
:101770005A6104E02B4A526982432A4B5A617047EE
:1017800029B1284A92690243264B9A6104E0254A0E
:1017900092698243234B9A61704729B1214AD269E9
:1017A0000243204BDA6104E01E4AD26982431D4B9A
:1017B000DA61704729B11B4AD2680243194BDA60DB
:1017C00004E0184AD2688243164BDA60704729B1A8
:1017D000144A12690243134B1A6104E0114A126958
:1017E0008243104B1A6170471449403908607047B2
:1017F0000F49C86470470B49C87170470948406A6F
:1018000040F0807007494862704701460020054A51
:1018100092680A4201D0012000E00020704701498F
:1018200088727047001002400000FFF8FFFFF6FECC
:1018300000004242D800424220100240800442424E
:1018400000127A0000093D00880000209800002066
:1018500010B50446FE48844208D10121C014FFF7A8
:10186000A9FF0021E014FFF7A5FFC4E0B4F1804F09
:1018700008D101210846FFF7AAFF00210120FFF748
:10188000A6FFB8E0F348844208D101210220FFF707
:101890009EFF00210220FFF79AFFACE0EE48844251
:1018A00008D101210420FFF792FF00210420FFF757
:1018B0008EFFA0E0E948844208D101210820FFF70B
:1018C00086FF00210820FFF782FF94E0E44884426D
:1018D00008D101211020FFF77AFF00211020FFF727
:1018E00076FF88E0DF48844208D101212020FFF7FD
:1018F0006EFF00212020FFF76AFF7CE0DA48844277
:1019000008D101214014FFF755FF00216014FFF7B3
:1019100051FF70E0D548844209D10121C804FFF786
:1019200049FF00214FF40020FFF744FF63E0D04857
:10193000844209D101210805FFF73CFF00214FF443
:101940008010FFF737FF56E0CA48844209D10121D1
:101950004805FFF72FFF00214FF40010FFF72AFF83
:1019600049E0C548844208D101214020FFF72FFFFC
:1019700000214020FFF72BFF3DE0C048844208D102
:1019800001218020FFF723FF00218020FFF71FFFA8
:1019900031E0BB48844208D101218015FFF717FFD1
:1019A0000021A015FFF713FF25E0B648844209D1B6
:1019B00001210804FFF7FEFE00214FF48030FFF7FD
:1019C000F9FE18E0B048844209D101214804FFF72C
:1019D000F1FE00214FF40030FFF7ECFE0BE0AB48C6
:1019E000844208D101218804FFF7E4FE00214FF46E
:1019F0008020FFF7DFFE10BD00220288944B984242
:101A00000ED0994B98420BD0B0F1804F08D0914B3B
:101A1000984205D0904B984202D0904B984204D106
:101A20004FF68F731A404B881A438D4B984207D05C
:101A30008C4B984204D04FF6FF431A40CB881A4390
:101A400002808B8883850B880385814B98420BD05D
:101A5000854B984208D08B4B984205D08A4B9842D0
:101A600002D08A4B984201D10B7A038601238382EC
:101A7000704770B5002400220023058C4FF6FE76D7
:101A800035400584028C8388048B4FF68F752C407B
:101A9000B51E2C400D882C43751E2A400D892A4303
:101AA0004D882A436A4DA8420BD06F4DA84208D0FA
:101AB000744DA84205D0744DA84202D0734DA8427F
:101AC00013D14FF6F7752A404D892A434FF6FB751F
:101AD0002A408D882A434FF6FF652B404FF6FF556D
:101AE0002B408D892B43CD892B4383800483CD8864
:101AF0008586028470BD70B5002400220023058C09
:101B00004FF6EF7635400584028C8388048B48F6C7
:101B1000FF752C404FF6FF452C400D884FF6FF76A1
:101B200006EA05252C434FF6DF752A400D8906EAA3
:101B300005152A434D8806EA05152A43444DA84257
:101B400002D0494DA8421DD14FF67F752A404D89DC
:101B50004FF6FF7606EA05152A434FF6BF752A4071
:101B60008D8806EA05152A434FF6FF352B404FF2C4
:101B7000FF752B408D8906EA85052B43CD8906EA42
:101B800085052B4383800483CD880587028470BD3F
:101B900070B5002400220023058C4FF6FF66354007
:101BA0000584028C8388848B4FF68F752C404FF60A
:101BB000FC752C400D882C434FF6FF552A400D89AB
:101BC0004FF6FF7606EA05252A434D8806EA0525E5
:101BD0002A431F4DA84202D0234DA8421DD14FF2E7
:101BE000FF752A404D894FF6FF7606EA05252A4300
:101BF0004FF6FF352A408D8806EA05252A434EF622
:101C0000FF752B404DF6FF752B408D8906EA0515B3
:101C10002B43CD8906EA05152B4383808483CD8829
:101C20008587028470BD70B5002200230024058CD6
:101C30004EF6FF7635400584038C8488828B48F607
:101C4000FF752A404FF6FF452A400D8820E000002E
:101C5000002C01400004004000080040000C00403F
:101C6000001000400014004000340140004C0140CE
:101C7000005001400054014000180040001C00408A
:101C80000020004000400140004401400048014065
:101C90004FF6FF7606EA05252A434DF6FF752B40E1
:101CA0000D8906EA05352B434D8806EA05352B4399
:101CB000FA4DA84202D0FA4DA84208D14BF6FF7562
:101CC0002C408D894FF6FF7606EA85152C438480DB
:101CD0008283CD88A0F84050038470BD828B4FF280
:101CE000FF331A408283828B4FF6FF7303EA01238E
:101CF0001A4382837047F0B50C4615460022002136
:101D00000026078C4EF6FF7C07EA0C070784828BBF
:101D1000018C4FF6FF7707EA043640F6FF473A405A
:101D20004FF6FF7707EA05273A434FF6FF7707EAB2
:101D300003373A43D94FB8420ED0D94FB8420BD0EF
:101D4000B0F1804F08D0D74FB84205D0D64FB84237
:101D500002D0D64FB84206D14DF6FF77394046F44F
:101D60008057394305E047F6FF57394044F4805720
:101D7000394382830184F0BD828B4FF6F3731A409E
:101D80008283828B0A4382837047F0B50C461546E6
:101D9000002200210026078C4FF6FF6C07EA0C0793
:101DA0000784828B018C4FF6FF7707EA04264FF6F3
:101DB0000C773A404FF6FF7707EA03172F433A4371
:101DC000B64FB8420ED0B64FB8420BD0B0F1804FEC
:101DD00008D0B44FB84205D0B34FB84202D0B34F89
:101DE000B84206D14FF6FF57394046F48077394361
:101DF00005E04FF2FF57394044F48077394382833E
:101E00000184F0BD028B4FF2FF331A400283028B34
:101E10004FF6FF7303EA01231A4302837047F0B5BC
:101E20000C461546002200210026078C4FF6EF7C59
:101E300007EA0C070784028B018C4FF6FF7707EA4D
:101E4000041640F6FF473A404FF6FF7707EA03379C
:101E50003A434FF6FF7707EA05273A438F4FB842D8
:101E60000ED08F4FB8420BD0B0F1804F08D08D4FBD
:101E7000B84205D08C4FB84202D08C4FB84206D140
:101E80004FF6DF77394046F01007394305E04FF64B
:101E90005F77394044F01007394302830184F0BD75
:101EA000028B4FF6F3731A400283028B0A430283BC
:101EB0007047F0B50C46154600220021068C4FF6FF
:101EC000FE773E400684028B018C4FF60C76324042
:101ED0007E1C06EA03162E433243704EB0420ED0EB
:101EE0006F4EB0420BD0B0F1804F08D06D4EB04273
:101EF00005D06D4EB04202D06C4EB04206D14FF6C6
:101F0000FD76314044F00106314305E04FF6F576A9
:101F1000314044F00106314302830184F0BD70B5C5
:101F200005460C465D4885420ED05D4885420BD083
:101F3000B5F1804F08D05B48854205D05A488542AC
:101F400002D05A48854200D100E000BF208850B935
:101F50002389A28861882846FFF7ABFFE1882846DD
:101F6000FFF79EFF25E0208804280AD12389A28854
:101F700061882846FFF753FFE1882846FFF742FFB4
:101F800017E0208808280AD12389A288618828467A
:101F9000FFF7FBFEE1882846FFF7EEFE09E0238904
:101FA000A28861882846FFF7A6FEE1882846FFF749
:101FB00095FE70BD2DE9F04105460C46002601272F
:101FC000608808B9022600E00026A088012801D117
:101FD000022700E001272088A0B92389A288618810
:101FE0002846FFF766FFE1882846FFF759FF238957
:101FF0003A4631462846FFF712FFE1882846FFF7A8
:1020000001FF13E02389A28861882846FFF707FFB4
:10201000E1882846FFF7F6FE23893A4631462846EE
:10202000FFF747FFE1882846FFF73AFFBDE8F08158
:102030000A884B881A438B881A43CB881A430B892A
:102040001A434B891A438B891A43A0F844207047DE
:102050004FF6FF71818000210180C18041800172B3
:1020600070470021018041808180C18001814181D0
:102070008181C181704700210180418001218180DF
:102080000021C18001817047002101804180818051
:10209000C18001814181818170470000002C014095
:1020A000003401400004004000080040000C0040E3
:1020B00021B1028842F00102028004E002884FF65A
:1020C000FE731A400280704731B1B0F8442042F4E8
:1020D0000042A0F8442005E0B0F84420C2F30E020C
:1020E000A0F8442070471AB183890B43838102E032
:1020F00083898B43838170478182704741EA020361
:10210000A0F8483070471AB183890B43838102E0FD
:1021100083898B438381704701894FF6F8721140A0
:10212000018170470A46002101894FF68F731940DB
:1021300011430181704730B504460D4629462046BB
:10214000FFF7F0FF208940F00700208130BD2DE926
:10215000F04104460D4616461F46602D06D13B460B
:10216000012231462046FFF75AFE05E03B46012298
:1021700031462046FFF79DFE29462046FFF7D2FF55
:10218000208940F007002081BDE8F08130B50C4681
:1021900000210189C9B24FF6FF7505EA03251543F1
:1021A00025432943018130BD2DE9F04105460E4606
:1021B00017469846002443463A4631462846FFF7DC
:1021C000E5FF2C894FF6F870044044F007044FF601
:1021D0008F70044044F070042C81BDE8F081F0B5AC
:1021E00004460D4616461F463B46324629462046C3
:1021F000FFF7CCFF208940F480402081F0BD0185AD
:10220000828270470A46002101884FF68F73194079
:10221000114301807047F0B50C4615461E4600215B
:10222000002200230189028B038C4FF6F877394096
:1022300021434FF6FC473A4040F201173A434FF62C
:10224000DD773B404FF6FF7707EA06172F433B4306
:10225000018102830384F0BD0A460021018B4FF601
:102260008F7319401143018370470A460021018B87
:1022700048F6FF7319404FF6FF7303EA0223194330
:10228000018370470A460021818B4FF68F731940F6
:102290001143818370470A460021818B48F6FF7302
:1022A00019404FF6FF7303EA0223194381837047F5
:1022B00021B1028842F08002028004E002884FF6D9
:1022C0007F731A400280704721B1828842F0040275
:1022D000828004E082884FF6FB731A408280704748
:1022E00021B1828842F00802828004E082884FF6A1
:1022F000F7731A408280704721B1828842F0010250
:10230000828004E082884FF6FE731A408280704714
:102310000A460021018B4FF6F773194011430183E0
:1023200070470A460021018B4FF2FF7319404FF6A8
:10233000FF7303EA02231943018370470A46002111
:10234000818B4FF6F77319401143818370470A461A
:102350000021818B4FF2FF7319404FF6FF7303EAA0
:1023600002231943818370470A460021018B4FF6EF
:10237000FB7319401143018370470A460021018B0A
:102380004FF6FF3319404FF6FF7303EA0223194358
:10239000018370470A460021818B4FF6FB73194079
:1023A0001143818370470A460021818B4FF6FF332A
:1023B00019404FF6FF7303EA0223194381837047E4
:1023C0000A460021018B4FF67F73194011430183A8
:1023D00070470A460021018BC1F30E014FF6FF73CF
:1023E00003EA02231943018370470A460021818BC7
:1023F0004FF67F7319401143818370470A460021CD
:10240000818BC1F30E014FF6FF7303EA02231943D8
:10241000818370470A460021018C4FF6FD731940F5
:102420001143018470470A460021018C4FF6F7736F
:1024300019401143018470470A460021018C4FF670
:10244000DF7319404FF6FF7303EA02131943018447
:1024500070470A460021018C4FF67F7319404FF6F2
:10246000FF7303EA02131943018470470A460021EF
:10247000018C4FF6FF5319404FF6FF7303EA022316
:102480001943018470470A460021018C4FF2FF7303
:1024900019404FF6FF7303EA022319430184704782
:1024A0000A460021018C4DF6FF7319404FF6FF7369
:1024B00003EA023319430184704730B50023012435
:1024C0008C40A3B2048C9C430484048C02FA01F572
:1024D000ADB22C43048430BD30B5002304248C40BD
:1024E000A3B2048C9C430484048C02FA01F5ADB2BF
:1024F0002C43048430BD70B50346002000241846E8
:10250000183001258D40ACB21D8CA5431D8409B146
:10251000082909D100EB6100056825F07005056008
:102520000568154305600EE00D1FC5F34E052844F0
:10253000056825F4E045056005684FF6FF7606EA74
:1025400002263543056070BD21B1028842F00202C7
:10255000028004E002884FF6FD731A400280704743
:1025600021B1028842F00402028004E002884FF6A2
:10257000FB731A400280704721B1828842F08002CA
:10258000828004E082884FF67F731A408280704711
:1025900002884FF6F7731A40028002880A430280CD
:1025A000704782884FF68F731A40828082880A4370
:1025B0008280704702894FF6F8731A4002810289BF
:1025C0000A430281704702894FF67F731A400281E5
:1025D00002890A4302817047818470478185704770
:1025E000818670470187704781877047A0F8401047
:1025F000704702884FF6FF431A40028002880A4360
:10260000028070470146888E70470146088F7047E8
:102610000146888F70470146B1F840007047014677
:10262000888C70470146088D704702460020138A47
:102630000B4201D0012000E000207047CA43028213
:10264000704730B50246002000230024158A05EAB1
:102650000103958905EA010413B10CB1012000E0E2
:10266000002030BDCA4302827047000010B5044606
:10267000FB48844209D101218803FFF79BF8002120
:102680004FF48040FFF796F832E0F648844209D1D3
:1026900001214804FFF79BF800214FF40030FFF7B9
:1026A00096F825E0F048844209D101218804FFF71B
:1026B0008EF800214FF48020FFF789F818E0EB48EE
:1026C000844209D10121C804FFF781F800214FF4A9
:1026D0000020FFF77CF80BE0E548844208D1012197
:1026E0000805FFF774F800214FF48010FFF76FF82A
:1026F00010BD2DE9F04786B005460E460024A246DF
:1027000000BFA1460027B08900B100BF2F462C8A28
:102710004CF6FF700440F08804432C82AC894EF6DE
:10272000F3100440B0883189084371890843044399
:10273000AC81AC8A4FF6FF400440B0890443AC82C0
:1027400001A8FEF7B0FFC648874202D1DDF810A00D
:1027500001E0DDF80CA0A88910F4004F08D00AEBC6
:10276000CA0000EB0A1031684900B0FBF1F807E03D
:102770000AEBCA0000EB0A1031688900B0FBF1F8DF
:102780006420B8FBF0F004012009642101FB1089EA
:10279000A88910F4004F08D0322000EBC900B0FB2C
:1027A000F1F000F00700044308E0322000EB0910CC
:1027B0006421B0FBF1F000F00F0004432C8106B05F
:1027C000BDE8F0874FF41651016000218180C1807F
:1027D00001810C21418100218181704710B50246A1
:1027E0000020108A4FF2FF0318400B884C882343C7
:1027F0008C882343CC8823431843108210BD0021CA
:10280000018041808180C180704721B1828942F47A
:102810000052828104E082894DF6FF731A40828162
:102820007047F0B503460024002600250020A1F5DE
:1028300010676A3F00D100BF1846C1F3421401F08F
:102840001F06012707FA06F5012C01D10C3004E020
:10285000022C01D1103000E014301AB107682F4368
:10286000076002E00768AF430760F0BD1AB1838AD2
:102870000B43838202E0838A8B4383827047028A00
:102880004FF6F0731A400282028A0A4302827047AE
:1028900082894FF2FF731A40828182890A438281C2
:1028A000704721B1828942F00202828104E082896C
:1028B0004FF6FD731A4082817047028A4FF6DF732C
:1028C0001A400282028A0A430282704721B1028AB8
:1028D00042F48042028204E0028A4BF6FF731A40FF
:1028E00002827047C1F308028280704701468888DF
:1028F000C0F308007047818941F001018181704770
:10290000028BD2B20283028B42EA01220283704719
:10291000028B02F47F420283028B0A4302837047D8
:1029200021B1828A42F02002828204E0828A4FF63C
:10293000DF731A408282704721B1828A42F010020E
:10294000828204E0828A4FF6EF731A4082827047D7
:1029500021B1828A42F00802828204E0828A4FF624
:10296000F7731A408282704721B1828942F4004293
:10297000828103E08289C2F30E028281704721B115
:10298000828A42F40062828204E0828A4FF2FF73FC
:102990001A4082827047828A4FF6FB731A40828205
:1029A000828A0A438282704721B1828A42F00202FF
:1029B000828204E0828A4FF6FD731A408282704759
:1029C00002460020B1F5007F00D100BF13880B4202
:1029D00001D0012000E00020704701F40072B2F540
:1029E000007F00D100BFCA430280704770B5024625
:1029F0000024002300250020A1F510666A3E00D1C6
:102A000000BFC1F3421501F01F03012606FA03F3CC
:102A1000012D02D19689334006E0022D02D1168A9B
:102A2000334001E0968A33400C12012606FA04F482
:102A30001688344013B10CB1012000E0002070BDB5
:102A400010B500220023A1F510646A3C00D100BF3C
:102A50000A1201249440A3B2DC43048010BD00009C
:102A6000003801400044004000480040004C004055
:102A700000500040F0B480EA0102D40F4200B2EBF3
:102A8000410F02D20246084611464A0042D0C30D09
:102A9000DDB2C1F3C752AD1A202D35DAC1F31601EC
:102AA00041F4000204B15242C5F1200602FA06F1D7
:102AB0002A411044B3EBD05F23D0C4B1012DA0EB69
:102AC000C35009DCF0BC4FF0004202EAC35200F5EB
:102AD0000000DBB200F069B9400000F1807000EB4B
:102AE000C350A0F1807040EAD170490009E0490864
:102AF00041EAC071A0EBC35000F50000400800EBB4
:102B0000C350F0BC00F048B96142012202EB410120
:102B1000001BF6E7F0BC704781F00041AAE780F0A7
:102B20000040A7E780EA010210B502F00043400030
:102B300026D04A0023D04FEA106101EB1261C0F3A6
:102B40005600C2F3560240F4000042F40002A0FB1B
:102B50000220A1F17F014FEA0040140401D000F1EE
:102B6000010050EA124001D44000491EC2B20C06D6
:102B700004EBD010401C4008802A02D003E0002063
:102B800010BD20F00100002900DA0020184310BD1C
:102B900030B480EA010202F0004530F0004221F03A
:102BA000004015D0A0B1C0F3C753C2F3C754C2F35D
:102BB0001601C0F31600E41A41F4000140F40002CB
:102BC0007D34914201D3641C00E04900002C02DAFC
:102BD00030BC002070474FF400000023914201D325
:102BE000891A034340084FEA4101F7D151B191429C
:102BF00002D14FF0004105E002D24FF0010101E0A7
:102C00006FF0010103EBC450284430BC00F0C4B89D
:102C10002DE9FE4F81EA030404F0004421F0004155
:102C200000944FF0000B23F0004350EA010402D05F
:102C300052EA030404D10020014603B0BDE8F08F3E
:102C4000C3F30A54C1F30A552C44A4F2F33401949B
:102C5000A0FB0254C1F3130141F48011C3F3130329
:102C600043F4801301FB024400FB034E840A970ADD
:102C700044EA815447EA8357A4FB076802958D0A0A
:102C800005FB07854FEA932C04FB0C542705029D96
:102C90004FEA065847EA1637B5EB08056EEB070C06
:102CA000870E920E47EA811742EA8312A7FB0201C0
:102CB000B6EB0B0164EB00042B0D43EA0C335E18FA
:102CC00044EB1C50DA465146E7FB0201C5F31304FE
:102CD0004FEA0B3343EA14534FEA0432019C43EAB0
:102CE0000603A4F10C040294009CCDE900B400F0AA
:102CF00096F8A2E70EB540F2334102910021CDE9EA
:102D000000110A460B4600F08AF803B000BD20F01F
:102D10000040C10DC0F3160040F400007F2901DA25
:102D200000207047962903DCC1F19601C840704726
:102D300096398840704701F0004330B421F00041DB
:102D400050EA010206D00A0DA2F56072C1F3130128
:102D5000002A02DC30BC00207047440F44EAC10462
:102D6000C100E01830BC00EBC25000F015B8000004
:102D7000002801DBC0F10040002901DBC1F1004166
:102D800081427047002801DBC0F10040002901DBCF
:102D9000C1F10041884270470029A8BF7047401C1C
:102DA000490008BF20F00100704710B4B0FA80FC61
:102DB00000FA0CF050EA010404BF10BC704749B19E
:102DC000CCF1200421FA04F411FA0CF118BF01210E
:102DD00021430843A3EB0C01CB1D0106000A002B85
:102DE000BEBF002010BC704700EBC3501044002948
:102DF000A4BF10BC7047401C490008BF20F0010070
:102E000010BC704710B5002B08DA401C41F10001DE
:102E100092185B411A4301D120F0010010BD2DE949
:102E2000F04D92469B4611B1B1FA81F202E0B0FA40
:102E300080F22032904600F057F804460F4640EAF0
:102E40000A0041EA0B0153465A46084303D1204683
:102E50003946BDE8F08D114653EA010015D0C8F19E
:102E60004002504600F04FF805460E46504659467F
:102E7000424600F039F8084301D0012000E000206C
:102E8000054346EAE0762C4337430A984FEA445319
:102E9000A0EB08004FEAD4240A304FF0000244EAC5
:102EA00047544FEAD72502D500200146D1E7010556
:102EB00010196941DDE9084500196941BDE8F04D87
:102EC000A0E70000064C074D06E0E06840F0010373
:102ED00094E8070098471034AC42F6D3FDF72CF97C
:102EE000442F0008642F0008202A04DB203A00FA4F
:102EF00002F1002070479140C2F1200320FA03F351
:102F0000194390407047202A04DB203A21FA02F04E
:102F10000021704721FA02F3D040C2F12002914013
:102F200008431946704702E008C8121F08C1002A6A
:102F3000FAD170477047002001E001C1121F002A3A
:102F4000FBD17047642F0008000000209C000000A7
:102F5000262F0008003000089C0000202C040000F0
:102F6000362F0008000000000000000000000000F4
:102F700000000000000000000000000000640A01E2
:102F800000000000CDCCCC3D0000A040666666404D
:102F90000AD7233C000000000000000000000000F1
:102FA0000000000000000000000000000000000021
:102FB0000000000000000000000000000001000010
:102FC00000000000000105000000000000000000FB
:102FD000000000000000000000A24A040000000001
:102FE00000000000010203040607080900000000B9
:102FF000010203040102030406070809020406088B
:0400000508000131BD
:00000001FF
